:020000020000FC
:020000000DC031
:0200080034C002
:10001A0069C00FED0DBFFF27E0EE112700E812932C
:10002A000A95E9F70BE107BB8D9AC09A02E000BF77
:10003A0001E409BF09E006D0789405B7006205BF5C
:10004A008895FECF0BBD1ABD00270DBD0CBD0DE076
:10005A000EBD08950027009375000BE606BF002722
:10006A0002BF03E003BF08950F930FB70F931F93C7
:10007A002F9300270EBD00917600002339F001303E
:10008A00B1F00230B9F00330B9F01EC000E806BD85
:10009A0000E006BD0EE113E8D5DF0091770001709C
:1000AA000F93FAD00F910395009377000DC0C4986F
:1000BA00D1DF0AC0CFDF08C0959800E806BD08E086
:1000CA0006BD00E015EBBEDF009176000395043013
:1000DA0009F40027009376002F911F910F910FBF0B
:1000EA000F9118950F930FB70F931F932F93FF93A9
:1000FA00EF93002703BF00917500202F07700F931D
:10010A00022F087F069506950695FF27E0E6E00F81
:10011A0000811F911395000F1A95E9F718F40BE661
:10012A00C39A02C009E4C3982395209375002E311F
:10013A0041F02F3149F0203251F0233659F08EDF49
:10014A0011C001E406BF0AC008E506BF07C005E5FD
:10015A0006BF04C001E01EE775DF04C0002702BF26
:10016A0004E003BFEF91FF912F911F910F910FBFF1
:10017A000F9118950F931F93FF93EF930F921F926E
:10018A000091730000936C0000917000109174004C
:10019A00012B00936E00009172001091710012956C
:1001AA00102B10936D00002700906C00000D00903A
:1001BA006D00000D00906E00000D34D000936F00AA
:1001CA0000916E002FD000936E0000916D002AD02E
:1001DA0000936D0000916C0025D000936C00FF27FE
:1001EA00E0E60AEA0083018302830AEA03830091B4
:1001FA006C002DD00483158300916D0028D00683EE
:10020A00178300916E0023D00087118700916F0039
:10021A001ED0028713871F900F90EF91FF911F91B5
:10022A000F9108951F93112700FD106801FD1064B6
:10023A0002FD106203FD106104FD186005FD1460E3
:10024A0006FD126007FD1160012F1F9108951AEA39
:10025A0007FD02C010641F7706FD02C010611F7DF2
:10026A0005FD02C01460177F04FD02C011601D7FE6
:10027A001F931AEA03FD02C010641F7702FD02C031
:10028A0010611F7D01FD02C01460177F00FD02C0CE
:10029A0011601D7F0F910895CF93BF93AF939F93E2
:1002AA008F937F936F935F934F933F932F931F93F4
:1002BA000F9300270093780001E0ADD0F6D09BD1D0
:1002CA000027A9D0F2D0E1D102E0A5D00ED1F9D110
:1002DA0000917800002311F001E088D000937D009E
:1002EA000F91002300E00093740019F4002739D11C
:1002FA0002C001E036D13EDF1F912F913F914F910D
:10030A005F916F917F918F919F91AF91BF91CF91A3
:10031A0008951F93BA9AB99A102F08E00F93110FF4
:10032A0010F4C29A01C0C29802E01AD0C19A05E03C
:10033A0017D0C1980F910A9589F7C29ABA9802E024
:10034A000FD0C19A05E00CD0B29B01C003D0C1986E
:10035A001F910895009178000395009378000895FD
:10036A000F9300000000000000000A95D1F70F91DA
:10037A0008951F930F93B99AC29ABA98112708E061
:10038A000F93C19A05E0ECDFB29903C08894111F5C
:10039A0002C00894111FC19801E0E2DF0F910A958B
:1003AA0079F7BA9A0F91002311F4C29A01C0C29840
:1003BA0001E0D6DFC19A05E0D3DFC198BA98012FD0
:1003CA001F9108950F93BA9AB99AC29AC19801E0F7
:1003DA00C7DFC19AC5DFC298C3DFC198C1DFC19A1E
:1003EA00BFDFC29ABDDFC1980F9108950F931F9383
:1003FA00BA9AB99AC29A01E0B3DF09E00F93C19A97
:10040A0001E0AEDFC198ACDF0F910A95B9F7DADFE8
:10041A001F910F9108951F932F93D4DF2227002352
:10042A0069F0013031F021E007E000937C0071DFD0
:10043A000AC005E000937C006CDF05C003E000936E
:10044A007C0067DF00C004E68BDF11E006E00F9353
:10045A000FEF0F930FEF0F93B29B0FC00F910A95F7
:10046A00D1F70F910A95A9F70F910A9581F7009193
:10047A00780003950093780004C00F910F910F91B3
:10048A001127222321F401E074DF0093790001E0AF
:10049A0070DF00937A0000276CDF00937B00112342
:1004AA0009F058DF2F911F9108951F930027009399
:1004BA007F0000917C0034D000937F000091790086
:1004CA002FD000937F0000917A002AD0ABDE0093F0
:1004DA007F0010917B00011B09F001E01091780068
:1004EA00100F109378001F9108951F93002700930F
:1004FA007F0000917C0014D000937F0000917A0065
:10050A000FD090DE00937F0010917B00011B09F051
:10051A0001E010917800100F109378001F91089550
:10052A001F932F93102F20917F0008E00F93110F34
:10053A0048F027FD02C0220F0DC0220F00E320273A
:10054A00216008C027FD05C0220F00E32027216093
:10055A0001C0220F0F910A9549F7022F2F911F917F
:10056A000895002300E000937400F1F408E4009376
:10057A007300009182000F70009371000091820055
:10058A00007F02950093700000918300007F02951E
:10059A0000937200009184000023D1F0009174004E
:1005AA0000620093740014C00FE00093730000917E
:1005BA008000007F029500937000009180000F7008
:1005CA000093710000918100007F029500937200F0
:1005DA0000917E00002329F00091740000680093C6
:1005EA00740000917D00002329F0009174000064DA
:1005FA000093740008950091790010917A000F9386
:10060A001F930695179506951795069517950695BE
:10061A0017951C3660F00FE64F915F916627772792
:10062A008BD000ED14EB2227332755D00BC00FE8EF
:10063A004F915F91662777277FD0002710E2222704
:10064A0033274FD00AE078D000E010E15AD005E015
:10065A001127222733273FD00AE052D0042F04362D
:10066A0008F004E6112782D000274695079546959B
:10067A00079546950795469507955F705295452BC0
:10068A004093800000938100089550917900409131
:10069A007A006627772703E71FE02227332720D02F
:1006AA003EF405E011272227332715D001E001C0C7
:1006BA0000270093840058D050938200409383000F
:1006CA00089500917A00007400E009F00395009300
:1006DA007E0008952EF0400F511F621F731F089568
:1006EA00E894401B510B620B730B48F46894415019
:1006FA0050406040704040955095609570950895BF
:10070A0011272227332788279927AA27BB1BC1E24B
:10071A00441F551F661F771FCA9569F3881F991FC3
:10072A00AA1FBB1F801B910BA20BB30B88F7800F6C
:10073A00911FA21FB31FECCF112722273327BB27F4
:10074A00AA279927881BC1E27795679557954795F8
:10075A00CA95A9F220F4800F911FA21FB31FB79563
:10076A00A79597958795F0CF042F152F6FEF63956F
:10077A0000511742E0F75FE9505108511C4FE0F36E
:10078A00539504561040E0F740EA4051065FE8F3FB
:04079A00400F08956F
:00000001FF
